{
  "transactions": [
    {
      "hash": "0x7af4faca6f095ae4ca10ff31881e63b0bc9128d20bb66412bc5c2b7d0ee642d0",
      "transactionType": "CALL",
      "contractName": null,
      "contractAddress": "0x779877a7b0d9e8603169ddbd7836e478b4624789",
      "function": "transferAndCall(address,uint256,bytes)",
      "arguments": [
        "0x9DdfaCa8183c41ad55329BdeeD9F6A8d53168B1B",
        "3000000000000000000",
        "0xc6be331e7050391ebc7c583f97403bc67cdaf5a24401cd252c0a44bc29fc4abe"
      ],
      "transaction": {
        "from": "0x9110ec73cf857483af9bbd9aee7ade0cebcb98ce",
        "to": "0x779877a7b0d9e8603169ddbd7836e478b4624789",
        "gas": "0x1c1ff",
        "value": "0x0",
        "input": "0x4000aea00000000000000000000000009ddfaca8183c41ad55329bdeed9f6a8d53168b1b00000000000000000000000000000000000000000000000029a2241af62c000000000000000000000000000000000000000000000000000000000000000000600000000000000000000000000000000000000000000000000000000000000020c6be331e7050391ebc7c583f97403bc67cdaf5a24401cd252c0a44bc29fc4abe",
        "nonce": "0x27",
        "chainId": "0xaa36a7"
      },
      "additionalContracts": [],
      "isFixedGasLimit": false
    }
  ],
  "receipts": [
    {
      "status": "0x1",
      "cumulativeGasUsed": "0x9e784b",
      "logs": [
        {
          "address": "0x779877a7b0d9e8603169ddbd7836e478b4624789",
          "topics": [
            "0xddf252ad1be2c89b69c2b068fc378daa952ba7f163c4a11628f55a4df523b3ef",
            "0x0000000000000000000000009110ec73cf857483af9bbd9aee7ade0cebcb98ce",
            "0x0000000000000000000000009ddfaca8183c41ad55329bdeed9f6a8d53168b1b"
          ],
          "data": "0x00000000000000000000000000000000000000000000000029a2241af62c0000",
          "blockHash": "0xb2bd16406ffb7a0fd144220a8097b85ea864700ed5c3d0c973f804c9932f3de5",
          "blockNumber": "0x6219f3",
          "transactionHash": "0x7af4faca6f095ae4ca10ff31881e63b0bc9128d20bb66412bc5c2b7d0ee642d0",
          "transactionIndex": "0x38",
          "logIndex": "0x4e",
          "removed": false
        },
        {
          "address": "0x779877a7b0d9e8603169ddbd7836e478b4624789",
          "topics": [
            "0xe19260aff97b920c7df27010903aeb9c8d2be5d310a2c67824cf3f15396e4c16",
            "0x0000000000000000000000009110ec73cf857483af9bbd9aee7ade0cebcb98ce",
            "0x0000000000000000000000009ddfaca8183c41ad55329bdeed9f6a8d53168b1b"
          ],
          "data": "0x00000000000000000000000000000000000000000000000029a2241af62c000000000000000000000000000000000000000000000000000000000000000000400000000000000000000000000000000000000000000000000000000000000020c6be331e7050391ebc7c583f97403bc67cdaf5a24401cd252c0a44bc29fc4abe",
          "blockHash": "0xb2bd16406ffb7a0fd144220a8097b85ea864700ed5c3d0c973f804c9932f3de5",
          "blockNumber": "0x6219f3",
          "transactionHash": "0x7af4faca6f095ae4ca10ff31881e63b0bc9128d20bb66412bc5c2b7d0ee642d0",
          "transactionIndex": "0x38",
          "logIndex": "0x4f",
          "removed": false
        },
        {
          "address": "0x9ddfaca8183c41ad55329bdeed9f6a8d53168b1b",
          "topics": [
            "0x1ced9348ff549fceab2ac57cd3a9de38edaaab274b725ee82c23e8fc8c4eec7a",
            "0xc6be331e7050391ebc7c583f97403bc67cdaf5a24401cd252c0a44bc29fc4abe"
          ],
          "data": "0x000000000000000000000000000000000000000000000000000000000000000000000000000000000000000000000000000000000000000029a2241af62c0000",
          "blockHash": "0xb2bd16406ffb7a0fd144220a8097b85ea864700ed5c3d0c973f804c9932f3de5",
          "blockNumber": "0x6219f3",
          "transactionHash": "0x7af4faca6f095ae4ca10ff31881e63b0bc9128d20bb66412bc5c2b7d0ee642d0",
          "transactionIndex": "0x38",
          "logIndex": "0x50",
          "removed": false
        }
      ],
      "logsBloom": "0x00000004000000000000000000000000000000000020000000000000020000000000000000100080000000000000000000000000000000000000000000000000000000000000000000000008000000000000000000000000000020000020080008000000000000000000000004000000000000000000000020000010000040000000000000000080000000010000800000000020000000000000000000000000000000000000000000000000010000000000000000000000000004000000000000000002000000000000000000000000000000000000000100000000000000000010000000000000800000000000000000000000000000000000000000000000",
      "type": "0x2",
      "transactionHash": "0x7af4faca6f095ae4ca10ff31881e63b0bc9128d20bb66412bc5c2b7d0ee642d0",
      "transactionIndex": "0x38",
      "blockHash": "0xb2bd16406ffb7a0fd144220a8097b85ea864700ed5c3d0c973f804c9932f3de5",
      "blockNumber": "0x6219f3",
      "gasUsed": "0x133b1",
      "effectiveGasPrice": "0x22fa5e79f",
      "from": "0x9110ec73cf857483af9bbd9aee7ade0cebcb98ce",
      "to": "0x779877a7b0d9e8603169ddbd7836e478b4624789",
      "contractAddress": null
    }
  ],
  "libraries": [],
  "pending": [],
  "returns": {},
  "timestamp": 1722690421,
  "chain": 11155111,
  "commit": "ecc5c56"
}